:020000040800F2
:10000000D832002031020008550F0008050C000806
:10001000F50E00086D080008BB1E00080000000077
:10002000000000000000000000000000990100082E
:10003000110A000800000000DD010008E51A0008B0
:100040004B0200084B0200084B0200084B0200085C
:100050004B0200084B0200084B0200084B0200084C
:100060004B0200084B0200084B0200084B0200083C
:100070004B0200084B0200084B0200084B0200082C
:100080004B0200084B0200084B0200084B0200081C
:100090004B0200084B0200084B0200084B0200080C
:1000A0004B0200084B0200084B0200084B020008FC
:1000B0004B0200084B0200084B0200084B020008EC
:1000C0004B0200084B0200084B0200084B020008DC
:1000D0004B020008551B00084B0200084B020008A9
:1000E0004B0200084B0200084B02000800F002F827
:1000F00000F042F80AA090E8000C82448344AAF180
:100100000107DA4501D100F037F8AFF2090EBAE87D
:100110000F0013F0010F18BFFB1A43F0010318473B
:100120000C3F00002C3F0000103A24BF78C878C173
:10013000FAD8520724BF30C830C144BF04680C60ED
:10014000704700000023002400250026103A28BF35
:1001500078C1FBD8520728BF30C148BF0B60704739
:10016000642900F0F180732900F00E8200207047AE
:100170001FB51FBD10B510BD00F047FA1146FFF7BF
:10018000F7FF02F0B5F800F065FA03B4FFF7F2FFED
:1001900003BC01F01BFF0000224B19680868B0E89F
:1001A000F00F80F30988BFF36F8F4FF0000080F3EA
:1001B00011884EF00D0E70470000000006480068E0
:1001C000006880F3088862B661B6BFF34F8FBFF353
:1001D0006F8F00DF00BF00BF08ED00E0EFF3098084
:1001E000BFF36F8F0F4B1A6820E9F00F106008B54E
:1001F0004FF0500080F31188BFF34F8FBFF36F8F24
:1002000003F0E6F84FF0000080F31188BDE80840E5
:1002100019680868B0E8F00F80F30988BFF36F8FA2
:10022000704700BF14000020EFF305807047000006
:100230000948804709480047FEE7FEE7FEE7FEE77A
:10024000FEE7FEE7FEE7FEE7FEE7FEE704480549B6
:10025000054A064B70470000F51A0008ED0000083B
:10026000D82C0020D8320020D82E0020D82E0020F4
:10027000704700000FB4044910B503AA029800F0BB
:1002800087F910BC5DF814FB8C0000202DE9F041CB
:100290000E460446002020622046E168884730B3BD
:1002A000252805D0D4E901219047206A401CF2E7B7
:1002B000E168204600278847050018D0A5F14100D5
:1002C000192802D820354FF40067324629462046C7
:1002D0002760FFF745FF40B1012804D0F61D26F046
:1002E00007060836D8E7361DD6E72846DAE7206A3B
:1002F000BDE8F08170B50C460546012A05D0287886
:10030000800600D5EA69002302E0012305E05B1CBA
:10031000934202D2E05C0028F9D1A869E618C01A1D
:10032000A861286A184428622846AFF3008004E0D8
:10033000D5E9012114F8010B9047B442F8D32846BF
:10034000AFF3008070BD00002DE9F04106460024A7
:1003500010687529314616A510D0AFF3008000282B
:1003600002DA404213A507E031688A0701D512A5D9
:1003700002E0490704D511A5012401E0AFF3008094
:1003800000210A2206F1240709E0B0FBF2FCB0FBD1
:10039000F2F302FB1C00303078541846491C002848
:1003A000F3D123462A463046BDE8F04100F068B854
:1003B000000000002D0000002B00000020000000C5
:1003C00010B5203AC0F00B80B1E81850203AA0E8F0
:1003D0001850B1E81850A0E81850BFF4F5AF5FEA24
:1003E000027C24BFB1E81850A0E8185044BF18C9D7
:1003F00018C0BDE810405FEA827C24BF51F8043B7E
:1004000040F8043B08BF7047D20728BF31F8023BD1
:1004100048BF11F8012B28BF20F8023B48BF00F865
:10042000012B704702F0FF0343EA032242EA024233
:1004300000F002B84FF000020429C0F0128010F062
:10044000030C00F0B980CCF1040CBCF1020F18BF12
:1004500000F8012BA8BF20F8022BA1EB0C0100F043
:10046000ABB85FEAC17C24BF00F8012B00F8012B78
:1004700048BF00F8012B70477047704770477047BE
:100480002DE9F0470D4699469246044600F12408AE
:100490000168880604D5E06921F01001216000E0C0
:1004A0000120A84201DD471B00E00027A1697A195D
:1004B00002EB0900081AA0612078C00602D4204689
:1004C000AFF30080002608E0D4E901211AF8060005
:1004D0009047206A401C761C20624E45F4DB207851
:1004E000C0060AD52046AFF3008006E0D4E901211A
:1004F00030209047206A401C2062381EA7F1010777
:10050000F4DC07E0D4E9012118F805009047206ADF
:10051000401C2062281EA5F10105F3DC2046AFF344
:1005200000802078000602D50220BDE8F087012077
:10053000FBE7000001694A1C02610878704700B5BA
:100540008FB0CDE901310021059105497944CDE90C
:10055000031011466846FFF799FE0FB000BD00007A
:10056000E5FFFFFF10B5436913B1AFF3008001E071
:10057000FFF7C0FE012010BD127800F124010A70BF
:1005800000224A700122EDE711684FF0FF32E9E7DF
:10059000074B70B50D467B44FFF7D1FF0446284654
:1005A00000F02FF810B14FF0FF3070BD204670BD45
:1005B0000F1C00004FF0000200B51346944696460B
:1005C000203922BFA0E80C50A0E80C50B1F1200166
:1005D000BFF4F7AF090728BFA0E80C5048BF0CC014
:1005E0005DF804EB890028BF40F8042B08BF704772
:1005F00048BF20F8022B11F0804F18BF00F8012BE4
:100600007047007B00F080007047754600F028F8C6
:10061000AE4605006946534620F00700854618B0EF
:1006200020B5FFF713FEBDE820404FF000064FF065
:1006300000074FF000084FF0000B21F00701AC4617
:10064000ACE8C009ACE8C009ACE8C009ACE8C00936
:100650008D4670470446AFF300802046FFF795FDB6
:1006600000487047742C002021B1826842F00102DA
:10067000826003E0826822F001028260704721B14B
:10068000826842F48072826003E0826822F48072A1
:100690008260704710B504461248844208D1012197
:1006A000401500F083FF0021601500F07FFF17E088
:1006B0000D48844208D10121001500F077FF002188
:1006C000201500F073FF0BE00848844208D1012197
:1006D000C80300F06BFF00214FF4004000F066FFFC
:1006E00010BD00000024014000280140003C0140F2
:1006F000014600208A6802F004020AB1012000E0ED
:1007000000207047014600208A6802F008020AB102
:10071000012000E00020704730B502460020002391
:1007200050680F4C20400D790C6844EA05242043A2
:10073000506090680B4C2040D1E902542C434D7915
:1007400044EA450420439060D06A20F470000C7C99
:10075000641EE4B2234340EA0350D06230BD00007F
:10076000FFFEF0FFFDF7F1FFF0B504460D46002057
:100770000021092D11DDE068A5F10A0606EB460708
:10078000072606FA07F18843A5F10A0606EB460696
:1007900003FA06F10843E0600CE0206905EB450729
:1007A000072606FA07F1884305EB450603FA06F12A
:1007B00008432061072A0FDA606B561E06EB860796
:1007C0001F2606FA07F18843561E06EB860605FA31
:1007D00006F10843606322E00D2A0FDA206BD61F72
:1007E00006EB86071F2606FA07F18843D61F06EB9D
:1007F000860605FA06F10843206310E0E06AA2F1DC
:100800000D0606EB86071F2606FA07F18843A2F1BC
:100810000D0606EB860605FA06F10843E062F0BD18
:10082000816841F008018160704721B1826842F41B
:10083000A002826003E0826822F4A0028260704716
:10084000816841F0040181607047000010B500F03C
:10085000FBFC03A20021084600F02CFE10BD0000A6
:100860004175746F204D6F646500000000BFFEE7A6
:1008700021B1026842F00102026004E002684FF612
:10088000FE731A400260704701684FF6FE72114015
:1008900001600021016041608160C1604B49884274
:1008A00008D14A490839496841F00F01474A083AD6
:1008B00051608AE045491431884208D143490839DA
:1008C000496841F0F001414A083A51607DE03F49F2
:1008D0002831884208D13D490839496841F470619E
:1008E0003A4A083A516070E038493C31884208D1B0
:1008F00036490839496841F47041344A083A516030
:1009000063E032495031884208D13049083949689A
:1009100041F470212D4A083A516056E02B49643168
:10092000884208D129490839496841F47001274AA9
:10093000083A516049E025497831884208D1234975
:100940000839496841F07061204A083A51603CE03A
:100950001F49884206D1011F096841F00F01021F9B
:10096000116032E01A491431884208D11849091F30
:10097000096841F0F001164A121F116025E0144980
:100980002831884208D11249091F096841F4706171
:100990000F4A121F116018E00D493C31884208D1FE
:1009A0000B49091F096841F47041094A121F11607F
:1009B0000BE007495031884207D10549091F0968F2
:1009C00041F47021024A121F116070470800024072
:1009D0000804024010B50022026847F6F0739A43FB
:1009E0000C6A8B6823430C6923434C6923438C694D
:1009F0002343CC6923434C6A23438C6A23431A4321
:100A00000260CB6843600B6883604B68C36010BDB5
:100A10007047000010B500F017FC03A20021084643
:100A200000F048FD10BD00004553503832363620E6
:100A30004D6F6465000000001CB50020009001901F
:100A4000002424E0BDF8000020490988084480B251
:100A5000ADF80000BDF802001C494988084480B286
:100A6000ADF80200BDF8040018498988084480B236
:100A7000ADF80400BDF806001449C988084480B2E6
:100A8000ADF80600052001F007FB601CC4B20A2C7B
:100A9000D8DBBDF800000A2190FBF1F00C4908807A
:100AA000BDF802000A2190FBF1F009494880BDF829
:100AB00004000A2190FBF1F005498880BDF806008A
:100AC0000A2190FBF1F00249C8801CBD9200002071
:100AD0009A0000202DE9F041024600250026002062
:100AE00000230024002791F803C00CF00F0591F8B3
:100AF00003C00CF0100CBCF1000F03D091F802C041
:100B00004CEA050591F800C0BCF1000F31D0146823
:100B100000202BE04FF0010C0CFA00F3B1F800C0FC
:100B20000CEA03069E4220D183004FF00F0C0CFA12
:100B300003F7BC4305FA03FC4CEA040491F803C034
:100B4000BCF1280F06D14FF0010C0CFA00FCC2F8E2
:100B500014C00AE091F803C0BCF1480F05D14FF072
:100B6000010C0CFA00FCC2F810C0401C0828D1D3BC
:100B70001460B1F800C0BCF1FF0F34DD54680020F0
:100B80002EE000F1080C4FF0010808FA0CF3B1F860
:100B900000C00CEA03069E4221D183004FF00F0CE7
:100BA0000CFA03F7BC4305FA03FC4CEA040491F881
:100BB00003C0BCF1280F05D100F1080C08FA0CF8AD
:100BC000C2F8148091F803C0BCF1480F07D100F1BE
:100BD000080C4FF0010808FA0CF8C2F81080401C0D
:100BE0000828CED35460BDE8F08102460020936807
:100BF0000B400BB1012000E00020704741617047BD
:100C00000161704700BFFEE770B502460024002571
:100C100000230020958A138B1B0445EA030626F067
:100C20007F4404EA01068E4201D1012000E0002049
:100C300070BD21B1028842F00102028004E0028806
:100C40004FF6FE731A400280704700001FB500F097
:100C500021F80020ADF804004BF6FF70ADF8060057
:100C6000C020ADF808004FF48060ADF80A00000124
:100C7000ADF80C00054800906946054800F03CF8C6
:100C800001210348FFF7D5FF1FBD0000400D030001
:100C90000054004008B501211C2000F077FC012120
:100CA000480500F053FCC020ADF800001C208DF872
:100CB000030003208DF8020069460248FFF70AFF8F
:100CC00008BD0000000C014021B1028842F480728E
:100CD000028004E002884FF6FF631A4002807047EA
:100CE00021B1028842F40072028004E002884FF6CB
:100CF000FF531A40028070472DE9F04385B0044647
:100D00000D460026B1460427DFF8CC80A6884FF6B2
:100D1000C0700640684600F059FCDDF808802F4896
:100D2000B8FBF0F01FFA80F946EA0906A680208891
:100D30004FF6FE7108402080002629492868884225
:100D40000CD828684000B8FBF0F087B2042F00DA16
:100D500004273E4309F10100208427E0E8884BF690
:100D6000FF71884206D1286800EB4000B8FBF0F024
:100D700087B209E0286800EBC00101EB0010B8FB66
:100D8000F0F087B247F48047C7F30B0008B947F08B
:100D9000010747F4004006434FF4967009FB00F04A
:100DA0004FF47A7190FBF1F0401C2084A6832088D8
:100DB00040F00100208026884FF6F5300640A888D4
:100DC0006989084306432680A88929890843208128
:100DD00005B0BDE8F083000000127A0040420F0029
:100DE000A086010012B141F0010102E04FF6FE734E
:100DF00019400182704701827047000010B500F071
:100E00006DFD00F03FFD00F009FD01210E48FFF7E8
:100E100036FC01210C48FFF727FC0B48FFF700FDCB
:100E200000BF0948FFF76EFC0028FAD10648FFF71B
:100E300007FD00BF0448FFF75BFC0028FAD1012141
:100E40000148FFF7F2FC10BD0024014008B5012164
:100E5000102000F09BFB4FF40050ADF80000102074
:100E60008DF8030003208DF8020069460448FFF75F
:100E700031FE4FF400510248FFF7C2FE08BD0000EA
:100E80000010014010B500F0DFF90EA20021084665
:100E900000F010FB0F4909784906080E01221821BD
:100EA00000F028FA0CA22821022000F003FB0DA27A
:100EB0002821042000F0FEFA0CA22821062000F0D0
:100EC000F9FA10BD53656C656374204374726C4D00
:100ED0006F646500C40000204E524632344C3031FD
:100EE0000000000045535038323636004175746FAB
:100EF0000000000000BFFEE710B50446FFF79CFDB0
:100F000013480088B0F5E16F02DAA02060700AE0B3
:100F10000F48008840F66601884202DD202060709C
:100F200001E0002060700A48C08840F666018842EF
:100F300002DD0E20A07009E00548C088B0F5E16F21
:100F400002DA0620A07001E00020A07010BD0000B1
:100F50009A0000207047000000B587B001210420EE
:100F600000F014FB4FF4C050ADF8180010208DF8BD
:100F70001B0003208DF81A0006A92248FFF7AAFDDE
:100F80004FF48070ADF8180028208DF81B0006A9DA
:100F90001C48FFF79FFD4FF4C8511A48FFF72EFE7B
:100FA00000F07EFB0021184800F000FC0020ADF8A6
:100FB00004004FF48270ADF806000020ADF8080080
:100FC000ADF80A00ADF80C004FF40070ADF80E005B
:100FD0001820ADF810000020ADF812000720ADF881
:100FE000140001A9084800F0FBFB0121064800F0AD
:100FF000DDFB00200549086001200549C1F8B0016A
:1010000007B000BD0008014000380040AC0121429B
:101010000000214270B504460020074908602046C0
:1010200000F088FBFF2000F085FB05460120034906
:10103000C1F8B001284670BDB00121420000214234
:1010400010B500201449086005221449302000F032
:101050005FF8052212492A2000F05AF801212120C8
:1010600000F074F80121222000F070F81A212420E9
:1010700000F06CF82821252000F068F80F212620C8
:1010800000F064F80E21202000F060F801200549EE
:10109000C1F8AC0110BD0000AC012142003A0008CB
:1010A000053A00080000214270B50546102000F006
:1010B00069FB00201449086020222946A02000F086
:1010C00027F801201149C1F8AC0100BF0E488C3847
:1010D00000680028FAD10720FFF79CFF044621464C
:1010E000272000F033F804F0100028B1FF21E120A0
:1010F00000F02CF8102070BD04F0200008B1202072
:10110000F9E7FF20F7E70000AC012142000021428F
:101110002DE9F04107460C46154600200A490860B3
:10112000384600F007FB8046002605E014F8010B66
:1011300000F000FB701CC6B2AE42F7DB0120024992
:1011400008604046BDE8F081B001214270B5054617
:101150000C46002007490860284600F0EBFA0646D6
:10116000204600F0E7FA01200349C1F8B0013046FB
:1011700070BD0000B00121420000214210B500F016
:1011800063F805A20021084600F094F906A20021A8
:10119000022000F08FF910BD4E524632344C3031EF
:1011A000204D6F64650000004C783A202020202CF0
:1011B0002052793A0000000010B54FF4407000F062
:1011C00039F810BD70B5002100230F22C47804B394
:1011D000154C246804F4E064C4F5E064210AC1F10C
:1011E0000403CA40447804FA03F18478144021438C
:1011F00009010E4C0678A155047804F01F0501245E
:10120000AC4005786D11AD0005F1E025C5F8004151
:1012100009E0047804F01F050124AC40044D067871
:10122000761145F8264070BD0CED00E000E400E0CA
:1012300080E100E002490143024A1160704700006A
:101240000000FA050CED00E010B5002000F02EF8CB
:1012500010BD000008B505A00068009003236A4691
:101260000021782000F06AFE08BD0000AE8D10005D
:1012700000B587B01C2206A16846FFF7A1F81C2321
:101280006A460021782000F059FE07B000BD00003A
:10129000AE0010D580A83FD300B0408D14A1C8DAAD
:1012A0001281BFD9F1DB302000A4A6AF70B505468E
:1012B000B02412E0A4F1B001C8B2002100F011F98D
:1012C000002606E02A464021782000F0F9FD701C37
:1012D000C6B2802EF6DB601CC4B2B72CEADD70BD4E
:1012E00010B5FFF7B3FCFFF7B5FFFFF7ADFFFFF752
:1012F000BFFF10BD2DE9F04106460F4615463946A1
:10130000304600F0EEF800240EE035B11548025DDD
:101310004021782000F0D4FD04E000224021782014
:1013200000F0CEFD601CC4B2082CEEDB711CC8B20C
:10133000394600F0D6F8002410E045B1094904F11F
:1013400008000A5C4021782000F0BAFD04E0002289
:101350004021782000F0B4FD601CC4B2082CECDB06
:10136000BDE8F0810A4000082DE9F04107460E462D
:101370001446F6B2A4F12000C4B23146384600F05B
:10138000B0F8002509E005EB041010490A5C402183
:10139000782000F095FD681CC5B2082DF3DB791CA0
:1013A000C8B2314600F09DF800250AE005EB0410B4
:1013B000083006490A5C4021782000F081FD681C55
:1013C000C5B2082DF2DBBDE8F08100000A3A000842
:1013D0002DE9F04106460F4615463946304600F0E5
:1013E00080F800240EE035B11548025D40217820D8
:1013F00000F066FD04E000224021782000F060FD4E
:10140000601CC4B2082CEEDB711CC8B2394600F077
:1014100068F8002410E045B1094904F108000A5CAD
:101420004021782000F04CFD04E00022402178208B
:1014300000F046FD601CC4B2082CECDBBDE8F08176
:101440001A4000082DE9F04781460E4690461D4699
:101450004FF0000A002429E0681E001BC1B20A20D8
:1014600000F0E8FFB8FBF0F00A21B0FBF1F201FB5D
:101470001207BAF1000F0DD1681EA0420ADD3FB974
:1014800006EBC400C1B220224846FFF76DFF0BE017
:101490004FF0010A07F13000C2B206EBC400C1B23E
:1014A0004846FFF761FF00BF601CC4B2AC42D3DB0B
:1014B000BDE8F08770B506460D4614460DE0782D60
:1014C00002DDB01CC6B20025227829463046FFF75F
:1014D0004BFF05F10800C5B2641C20780028EED14E
:1014E00070BD70B505460C4605F1B000C2B20021D2
:1014F000782000F0E5FC04F00F020021782000F0D5
:10150000DFFC102040EA14120021782000F0D8FC03
:1015100070BD000001460020034A506820F440409E
:1015200008435060704700000010024029B1064A8D
:1015300052690243044B5A6104E0034A52698243F0
:10154000014B5A61704700000010024029B1064A61
:10155000D2690243044BDA6104E0034AD269824350
:10156000014BDA61704700000010024029B1064AC1
:1015700012690243044B1A6104E0034A1269824370
:10158000014B1A61704700000010024029B1064A61
:1015900092690243044B9A6104E0034A92698243D0
:1015A000014B9A61704700000010024029B1064AC1
:1015B000D2680243044BDA6004E0034AD2688243F3
:1015C000014BDA60704700000010024030B5002186
:1015D0000022002400232D4D6D6805F00C0121B17F
:1015E000042905D0082923D105E0294D056022E012
:1015F000274D05601FE0254D6D6805F47012234DE1
:101600006D6805F48034022505EB92421CB9214D2A
:10161000554305600BE01D4D6D6805F400351DB1A7
:101620001C4D5543056002E0194D5543056002E02D
:10163000174D056000BF00BF144D6D6805F0F00147
:101640000909154D6B5C0568DD4045600F4D6D68FF
:1016500005F4E061090A104D6B5C4568DD4085606A
:101660000A4D6D6805F46051C90A0B4D6B5C456805
:10167000DD40C560054D6D6805F44041890B074D9F
:101680006B5CC568B5FBF3F5056130BD0010024029
:1016900000127A0000093D00740000208400002040
:1016A00000B587B001210820FFF770FF01218803F2
:1016B000FFF74CFF4FF46040ADF8180018208DF88C
:1016C0001B0003208DF81A0006A91848FFF702FA3C
:1016D0004FF460411548FFF793FA0020ADF804007D
:1016E0004FF48270ADF806000020ADF8080002202B
:1016F000ADF80A000120ADF80C004002ADF80E0074
:101700003820ADF810000020ADF812000720ADF829
:10171000140001A9064800F063F80121044800F014
:1017200045F8FF2000F006F807B000BD000C0140AE
:101730000038004070B5054605E0601CC4B2C82CF6
:1017400001DD002070BD02210D4800F03BF80128AA
:10175000F3D1002429460A4800F040F805E0601C57
:10176000C4B2C82C01DD0020ECE70121044800F0E0
:1017700029F80128F3D1024800F02DF8C0B2E1E7C2
:101780000038004010B50446074800884FF6C7717E
:101790000840054908800846008820430880012148
:1017A000014800F003F810BD0038004021B1028864
:1017B00042F04002028004E002884FF6BF731A40F4
:1017C000028070470246002013890B400BB10120B4
:1017D00000E000207047014688897047818170478A
:1017E00010B50022028802F441520B884C88234332
:1017F0008C882343CC8823430C8923434C8923437F
:101800008C892343CC8923431A430280838B4FF274
:10181000FF74234083830B8A038210BD00B585B01B
:101820001748FEF737FF0020009001208DF80400D4
:101830008DF805004FF460200290002003900420F2
:101840008DF8100069460E48FEF766FF032301225B
:1018500000210B48FEF788FF0323022201210848DC
:10186000FEF782FF03231A4608210548FEF77CFF96
:101870000323042209210248FEF776FF05B000BDCC
:101880000024014000B58BB01148FEF7FDFF114860
:101890000090114801900020029004200390002045
:1018A0000490802005904000069080000790202042
:1018B00008900002099000200A9069460448FFF74A
:1018C00089F801210248FEF7D3FF0BB000BD0000EC
:1018D000080002404C2401409200002008B501217C
:1018E0004FF40370FFF752FE01210846FFF71EFE7A
:1018F0004FF44040FFF70EFE0320ADF8000000203B
:101900008DF8030069461148FFF7E4F80320ADF8AD
:10191000000000208DF8030069460D48FFF7DAF853
:101920000420ADF8000048208DF803006946074800
:10193000FFF7D0F84FF48060ADF8000048208DF834
:10194000030069460248FFF7C5F808BD00080140DA
:10195000000C014070B504460025012C01D11A4944
:10196000087019480078F8B104211848FFF73DF9CC
:1019700028B14FF480611648FFF737F9A0B900206D
:1019800011490870142000F087FB04210F48FFF76D
:101990002CF908B9012515E04FF480610C48FFF7D8
:1019A00024F978B902250DE004210848FFF71DF954
:1019B00040B14FF480610648FFF717F910B10120DC
:1019C00001490870284670BDA200002000080140AF
:1019D000000C014010B500F001F810BD0CB500205E
:1019E000019000903348006840F48030314908602D
:1019F00000BF3048006800F4003000900198401C9F
:101A00000190009818B90198B0F5A06FF1D129485C
:101A1000006800F4003010B10120009001E00020C7
:101A200000900098012843D12348006840F010003E
:101A3000214908600846006820F003000860084655
:101A4000006840F0020008601A4840681949486080
:101A50000846406848600846406840F48060486036
:101A60000846406820F47C1048600846406840F40E
:101A7000E81048600846006840F08070086000BFC9
:101A80000C48006800F000700028F9D00948406850
:101A900020F00300074948600846406840F0020013
:101AA000486000BF0348406800F00C000828F9D1E6
:101AB0000CBD00000010024000200240042808D1A4
:101AC0004FF0E021096941F004014FF0E02211617B
:101AD00007E04FF0E021096921F004014FF0E02216
:101AE0001161704710B501F0EBFD012801D001F044
:101AF00013FD10BD10B51348006840F001001149F6
:101B0000086008464068104908400E494860084689
:101B100000680E4908400B4908600846006820F438
:101B2000802008600846406820F4FE0048604FF4BA
:101B30001F008860FFF74EFF4FF000600449086007
:101B400010BD0000001002400000FFF8FFFFF6FE8D
:101B500008ED00E010B540F225511D4800F0ECF80A
:101B6000012834D11A4800F0A3F9C4B219480088FA
:101B700000F4004058BB1748008800F4804060B172
:101B80000A2C03D000201349088020E01148008867
:101B900040F400400F49088019E00D2C06D10D4893
:101BA000008840F480400B49088010E00948008814
:101BB000C0F30D0008490C5406480088401C054934
:101BC000088008460088C72801DD0020088010BD75
:101BD0000038014090000020AC2B002010B586B0EA
:101BE0000446012144F20400FFF7D0FC234800F032
:101BF00055F84FF40070ADF8140003208DF816006E
:101C000018208DF8170005A91D48FEF763FF4FF453
:101C10008060ADF8140004208DF8170005A918485D
:101C2000FEF758FF25208DF8000007208DF80100F1
:101C300000208DF8020001208DF803006846FFF7B0
:101C4000C1FA01940020ADF80800ADF80A00ADF823
:101C50000C00ADF810000C20ADF80E0001A90748EB
:101C600000F0BAF8012240F22551044800F08EF845
:101C70000121024800F006F806B010BD003801400E
:101C80000008014021B1828942F40052828104E0BF
:101C900082894DF6FF731A408281704710B5044661
:101CA0002048844209D101218803FFF77FFC0021ED
:101CB0004FF48040FFF77AFC32E01B48844209D1A0
:101CC00001214804FFF752FC00214FF40030FFF7D8
:101CD0004DFC25E01548844209D101218804FFF715
:101CE00045FC00214FF48020FFF740FC18E010482D
:101CF000844209D10121C804FFF738FC00214FF4C8
:101D00000020FFF733FC0BE00A48844208D1012190
:101D10000805FFF72BFC00214FF48010FFF726FC8D
:101D200010BD000000380140004400400048004061
:101D3000004C00400050004070B5024600240023D3
:101D40000025002040F66A16B14200D100BFC1F361
:101D5000421501F01F03012606FA03F3012D02D1FB
:101D60009689334006E0022D02D1168A334001E005
:101D7000968A33400C12012606FA04F41688344081
:101D800013B10CB1012000E0002070BDF0B5034696
:101D9000002400260025002040F66A17B94200D131
:101DA00000BF1846C1F3421401F01F06012707FACD
:101DB00006F5012C01D10C3004E0022C01D11030C9
:101DC00000E014301AB107682F43076002E007688B
:101DD000AF430760F0BD00002DE9F04786B005462F
:101DE0000E460024A24600BFA1460027B08900B1DC
:101DF00000BF2F462C8A4CF6FF700440F088044345
:101E00002C82AC894EF6F3100440B0883189084327
:101E1000718908430443AC81AC8A4FF6FF4004400B
:101E2000B0890443AC8201A8FFF7D0FB1F4887426A
:101E300002D1DDF810A001E0DDF80CA0A88900F4C3
:101E4000004040B10AEBCA0000EB0A1031684900BB
:101E5000B0FBF1F807E00AEBCA0000EB0A103168AA
:101E60008900B0FBF1F86420B8FBF0F00401200910
:101E7000642101FB1089A88900F4004040B13220A0
:101E800000EBC900B0FBF1F000F00700044308E0EC
:101E9000322000EB09106421B0FBF1F000F00F00DC
:101EA00004432C8106B0BDE8F087000000380140F3
:101EB00001468888C0F30800704700BFFEE70000B5
:101EC00070B504460E46154601211948FEF7FCFE82
:101ED00000BF18491648FEF797FE0028F9D00022E7
:101EE00021461348FEF77EFF00BF13491048FEF756
:101EF0008BFE0028F9D031460D48FEF77CFF00BF6D
:101F00000D49891C0A48FEF77FFE0028F8D02946B3
:101F10000748FEF770FF00BF0749891C0448FEF719
:101F200073FE0028F8D001210148FEF7D9FE70BDEC
:101F30000054004001000300820007002DE9F04139
:101F400005460F4614461E4601211D48FEF7BCFEFD
:101F500000BF1C491A48FEF757FE0028F9D000229E
:101F600029461748FEF73EFF00BF17491448FEF701
:101F70004BFE0028F9D039461148FEF73CFF00BF60
:101F80001149891C0E48FEF73FFE0028F8D00CE0EE
:101F900014F8011B0A48FEF72EFF00BF0A49891CEE
:101FA0000748FEF731FE0028F8D03000A6F1010105
:101FB0008EB2EDD101210248FEF792FEBDE8F0811C
:101FC00000540040010003008200070000BF70477A
:101FD00008B500200090002429E001236A46991EDC
:101FE000002001F02DFC0446012C05D1009800F0E2
:101FF000010008B1FEF72AFC59200D4908700023A2
:10200000022219460B48006801F0D0FA084802780D
:10201000032340210620FFF715FA00230122114671
:102020000548006801F0C2FA0A2000F0E1FFD4E799
:10203000C5000020B8000020B400002010B51248F0
:1020400000681249B0FBF1F0114908706FF004000C
:10205000FFF734FD0C4800680C49B0FBF1F442F284
:10206000107044430A200B4908804FF0E0200069BB
:1020700040F002004FF0E021086108464461006929
:1020800040F00100086110BD0000002040420F0038
:10209000880000208A00002070B5044601F010FB83
:1020A000012811D00C480088844206DB0A480088C9
:1020B00094FBF0F5284600F09BFF0748008894FB4E
:1020C000F0F100FB114084B24FF47A7104FB01F08F
:1020D00000F004F870BD00008A00002070B50346CF
:1020E00000224FF0E02675690D4E367803FB06F4AA
:1020F0004FF0E026B16910E04FF0E026B069884269
:102100000BD0884202D20E1A324402E02E1A0E443C
:1021100032440146A24200D300E0EDE700BF70BDAB
:102120008800002030B50446002504E04FF47A70A2
:10213000FFF7D4FF6D1CA542F8D330BD08B50020D1
:102140000090002429E001236A46991E002001F036
:1021500077FB0446012C05D1009800F0010008B17E
:10216000FEF758FC45200D4908700023022219464D
:102170000B48006801F01AFA08480278032340214E
:102180000620FFF75FF90023012211460548006889
:1021900001F00CFA0A2000F02BFFD4E7C500002064
:1021A000B8000020B400002000BF054A128802F0E9
:1021B0004002002AF9D0C2B2014B1B1D1A807047A1
:1021C0000038014008B500200090002600240025BA
:1021D00073E04FF0FF336A461946002001F030FBF0
:1021E0000646012E69D1009800F00100002864D055
:1021F000009800F0020008B1012500E00025002051
:10220000FFF7A8FB044695B3012C30D12B4800689A
:1022100001F056F82A48007801280AD1002301224B
:1022200011462848006801F0C1F92648006800F00E
:102230009FFF2348007802280AD10023012211467B
:102240002148006801F0B2F91F48006800F090FFD3
:102250001B48007803280AD10023012211461B489D
:10226000006801F0A3F91948006800F081FF25BB60
:10227000022C22D112480078012803D111480068AD
:1022800001F01EF80E480078022803D10E480068BD
:1022900001F016F80A480078032803D10B480068BB
:1022A00001F00EF80023012211460448006801F0F5
:1022B0007DF90248006800F05BFF8AE7BC0000205F
:1022C000C4000020A8000020AC000020B0000020C6
:1022D0000AE00648006808B9012000E00020034930
:1022E0000860322000F084FEF3E70000B4012242CF
:1022F0001CB5FEF761FFFFF7A1FE6420FFF712FF98
:102300004FF4E130FFF76AFCFEF7A0FDFEF724FE74
:10231000FEF774FDFEF79AFCFEF7E2FF0648012186
:1023200000238022CDE9001004A1074801F00EF936
:1023300000F074FF00201CBDA400002073746172C3
:10234000745F7461736B0000B12B000808B5002046
:102350000090002465E001236A46991E002001F0E8
:102360006FFA0446012C05D1009800F0010008B175
:10237000FEF788FDFF202B49087000230222194632
:102380002948006801F012F92648FEF7B5FD2548F6
:10239000407820281DD0A02837D124490978490643
:1023A000080E00221821FEF7A5FF20480078401EE5
:1023B0001E49087008460078012801DA03200870D9
:1023C0001A4909784906080E01221821FEF792FFE2
:1023D0001CE0164909784906080E00221821FEF76C
:1023E00089FF12480078401C1049087008460078A0
:1023F000032801DD012008700C4909784906080E00
:1024000001221821FEF776FF00E000BF00BF002385
:10241000012203210648006801F0C8F80A2000F0F4
:10242000E7FD98E7C5000020B8000020C4000020A8
:10243000B400002010B50246012000E050430B001C
:10244000A1F10104E1B2F9D110BD000008B50020EE
:10245000009000243AE001236A46991E002001F012
:10246000EFF90446012C05D1009800F0010008B1F5
:10247000FEF784FE1648FEF73FFD15484278032319
:1024800018210220FEF7DEFF114882780323602125
:102490000220FEF7D7FF31200D49087000230222E9
:1024A00019460C48006801F081F8094802780323B6
:1024B00040210620FEF7C6FF0023012211460648F0
:1024C000006801F073F80A2000F092FDC3E70000F5
:1024D000C5000020B8000020B40000202DE9F04124
:1024E00005460E461C4807681C480068001D00F0A1
:1024F00055FC50B91948006890F82C10012088400C
:1025000017490968814316480160681C38B936B11B
:1025100012480168091D134800F07EFC1AE07C197E
:102520000E4800684460BC4207D20C480168091D8F
:102530000D48006800F056FC0CE008480168091DD1
:102540000A48006800F04EFC09480068844201D245
:1025500007480460BDE8F081280000201400002036
:102560002C000020980300201C00002018000020F0
:102570004400002010B5044600F05AFC24480068CE
:10258000401C234908602348006840B92148046082
:102590000846006801280DD100F03EF90AE01E4807
:1025A000006838B91B480068C06AE16A884201D8EF
:1025B0001848046019480068401C1849086008461B
:1025C0000068606494F82C10012088401449096860
:1025D000084313490860E16A01EB8101114A02EBEB
:1025E0008100211D00F018FC00F064FC0A4800681E
:1025F00068B108480068C06AE16A884207D24FF0B3
:10260000805009490860BFF34F8FBFF36F8F10BD33
:102610002400002014000020300000204000002092
:102620002C000020C800002004ED00E070B523E07D
:1026300000F0C6FE1348006808B9012000E0002041
:10264000054601F04DF9BDB900F0F2FB0D48C06838
:10265000C468201D00F0A2FB0B480068401E0A4918
:1026600008600A480068401E0849086000F022FC23
:10267000204600F00DF800BF044800680028D7D1BC
:1026800070BD0000840300202400002020000020F2
:1026900010B50446206B00F043FC204600F040FCDF
:1026A00010BD000030B54FF42053174800F0070468
:1026B0002CB1C01D20F00700134C041B1B1B02464D
:1026C000124C22600024114D6C60D018083820F0A4
:1026D00007000F4C206000240D4D2D686C600C4DE0
:1026E0002D682C601146441A4C60094C24680C601B
:1026F000084D4C682C60084D4C682C604FF000442D
:10270000064D2C6030BD0000AC0300205C000020B2
:10271000640000206C000020680000207000002091
:1027200000BFFFF783FF064800680128F9D94FF082
:10273000805004490860BFF34F8FBFF36F8FF0E7FD
:10274000C800002004ED00E02DE9F05F82460F464E
:1027500090469B460A9E0C9C4FEA8801A522206B5E
:10276000FDF760FEA8F10100216B01EB800929F063
:10277000070909F0070008B9012000E0002028B986
:1027800040F22B321BA120A0FDF774FD002507E0CD
:10279000795D04F134004155785D00B902E06D1CAB
:1027A000102DF5D300BF002143200155202E00D36A
:1027B0001F26E662E66400202065201D00F00FFB66
:1027C00004F1180000F00BFB2461C6F12000A061A9
:1027D00064620020606584F858005A4651464846B5
:1027E00000F0B4F920600B9808B10B980460BDE8C4
:1027F000F09F00004672656552544F535C746173DC
:102800006B732E63000000004572726F723A25737D
:102810002C25640D0A00000010B5002407E004EB2D
:1028200084010F4A02EB810000F0CCFA641C202CDA
:10283000F5D30C4800F0C6FA0B4800F0C3FA0B4879
:1028400000F0C0FA0A4800F0BDFA0A4800F0BAFAEF
:1028500004480949086004480849086010BD0000A0
:10286000C8000020480300205C0300207003002003
:102870008403002098030020180000201C00002082
:1028800010B50146164800E0006803688B42FBD390
:102890000246436813448B4204D143684C68234486
:1028A000436001460A464B6813440468A34211D1B1
:1028B0000C4C03682468A34208D04B680468646821
:1028C00023444B6003681B680B6005E0054B1B68E5
:1028D0000B6001E003680B60884200D0016010BD0E
:1028E0005C000020640000200A490968096809B9F1
:1028F000012100E0002121B14FF0FF31064A1160B3
:1029000006E004490968C968C868034A416811605B
:102910007047000018000020440000200B480068A9
:10292000401C08B9012000E0002020B9F42208A1D1
:1029300011A0FDF79FFC00BF502080F31188BFF36A
:102940004F8FBFF36F8F00BF00BFFEE75000002026
:102950004672656552544F535C706F727461626C5D
:10296000655C525644535C41524D5F434D335C703D
:102970006F72742E630000004572726F723A257395
:102980002C25640D0A00000070B5054600262C4673
:102990002DB940F281620EA112A0FDF76BFC154922
:1029A0006069884201D1012000E0002070B1124925
:1029B000A06A884201D1012000E0002030B9A06A5D
:1029C00008B9012000E0002000B10126304670BDAA
:1029D0004672656552544F535C7461736B732E631A
:1029E000000000004572726F723A25732C25640D49
:1029F0000A00000098030020700300202DE9F04138
:102A000004464FF0000800F0DBFC3E48006808B9BF
:102A1000FFF748FE3C480068204000285FD1A4B181
:102A2000083404F0070080B104F00700C0F108008A
:102A3000044404F0070008B9012000E0002020B998
:102A4000BF2232A13AA0FDF715FC002C47D03C482C
:102A50000068844243D83B4E3046056801E02E466C
:102A60002D686868A04202D228680028F7D125485E
:102A70000068854233D0306800F10808286830606B
:102A80006868001B102813D92F1907F0070008B930
:102A9000012000E0002020B9EC221CA124A0FDF7B9
:102AA000E9FB6868001B78606C603846FFF7E8FE59
:102AB000234968680968081A2149086008460068BF
:102AC00021490968884203D21D4800681E490860F0
:102AD0000D4968680968084368600020286000F0B4
:102AE000FFFE08F0070008B9012000E0002028B927
:102AF0004FF4967205A10EA0FDF7BCFB4046BDE861
:102B0000F0810000640000207000002046726565BE
:102B100052544F535C706F727461626C655C4D65AA
:102B20006D4D616E675C686561705F342E63000097
:102B30004572726F723A25732C25640D0A000000ED
:102B4000680000205C0000206C000020001F4FF097
:102B500080730360001F21F001030360001F034B1B
:102B60000360143802602038704700001D290008F7
:102B7000002519E04FF0FF31002000F0D5F80546A0
:102B800095B1FEF75DFA0948FEF78EFA0446202C4F
:102B900005D1012200210620FEF71AFC04E00022E4
:102BA00011460620FEF714FCE4E70000C5000020F3
:102BB0001CB5044600F03CF92F4802210023802276
:102BC000CDE900102DA1314800F0C0FC30480221B1
:102BD00000238022CDE900102EA1324800F0B6FC7F
:102BE0003148022100238022CDE900102FA1334873
:102BF00000F0ACFC3248052100238022CDE9001012
:102C000030A1354800F0A2FC344803210023802283
:102C1000CDE9001032A1374800F098FC3648042175
:102C200000238022CDE9001034A1374800F08EFC4B
:102C30003648062100238022CDE9001034A138480F
:102C400000F084FC0C48006800F03AFB1048006873
:102C500000F036FB1448006800F032FB002301222C
:102C600011461748006800F0A1FC2E48006800F0EB
:102C7000F9F900F01FF91CBDA80000206E72665F14
:102C80006D6F64655F7461736B0000004D24000814
:102C9000AC0000206573705F6D6F64655F74617375
:102CA0006B0000003D210008B00000206175746FCA
:102CB0005F6D6F64655F7461736B0000D11F000806
:102CC000BC0000206D61696E5F70726F6365737325
:102CD0005F7461736B0000004D230008B400002096
:102CE0006B65795F70726F636573735F7461736B2B
:102CF00000000000C5210008B800002073656E6464
:102D00005F7461736B000000712B0008C00000202D
:102D10006C65645F746F67676C655F7461736B008B
:102D2000D1220008A400002070B506460D4600F030
:102D30007FF818480068406D88B901201549096876
:102D400081F858005DB101212846FFF7C7FB4FF01D
:102D5000805011490860BFF34F8FBFF36F8F00F0B1
:102D6000A9F800F065F80B480068446D4CB126B135
:102D7000002008490968486503E0601E05490968A4
:102D8000486500200349096881F8580000F092F86E
:102D9000204670BD1400002004ED00E001460A69E1
:102DA000D1E901309860D1E9010358605068884248
:102DB00001D188685060002008611068401E1060D2
:102DC0001068704700F1080141604FF0FF318160E9
:102DD00000F10801C160016100210160704700211C
:102DE0000161704710B502460B685C1C0CB9106994
:102DF00007E002F1080000E04068446824689C4253
:102E0000FAD944684C604C68A160886041600A61EE
:102E10001468641C146010BD42684A6093688B603B
:102E2000936859609160086103685B1C0360704798
:102E300010B500BF502080F31188BFF34F8FBFF350
:102E40006F8F00BF0B480068401C0A4908600846A5
:102E5000006801280DD108480068C0B208B90120F7
:102E600000E0002028B94FF4BD7204A10DA0FDF7C9
:102E700001FA10BD5000002004ED00E046726565C7
:102E800052544F535C706F727461626C655C525641
:102E900044535C41524D5F434D335C706F72742EEE
:102EA000630000004572726F723A25732C25640D21
:102EB0000A00000010B50B48006828B940F28112E2
:102EC00009A113A0FDF7D6F906480068401E054980
:102ED00008600846006820B9002080F3118800BF10
:102EE00000BF10BD500000204672656552544F531C
:102EF0005C706F727461626C655C525644535C41E5
:102F0000524D5F434D335C706F72742E630000004E
:102F10004572726F723A25732C25640D0A00000009
:102F200070B506463546002E35D0083D2C461A4968
:102F300060680968084008B1012000E0002028B955
:102F40004FF4A07215A11EA0FDF794F9206808B9EE
:102F5000012000E0002028B940F241120FA118A082
:102F6000FDF788F90C4960680968084098B1206845
:102F700088B90949606809688843606000F020FAF0
:102F80001349606809680844114908602046FFF742
:102F900077FC00F0A5FC70BD7000002046726565EE
:102FA00052544F535C706F727461626C655C4D6516
:102FB0006D4D616E675C686561705F342E63000003
:102FC0004572726F723A25732C25640D0A00000059
:102FD00068000020054800686421B0FBF1F0401E45
:102FE0004FF0E02148610720086170470000002091
:102FF00070B504460025ACB10F48006808B901203F
:1030000000E0002028B940F2CF420CA110A0FDF74B
:1030100031F900F0D5F900212046FFF75FFA00F002
:103020005FFC05463DB94FF080500D490860BFF385
:103030004F8FBFF36F8F70BD4C00002046726565E7
:1030400052544F535C7461736B732E630000000025
:103050004572726F723A25732C25640D0A000000C8
:1030600004ED00E070B50546FFF7E2FE15B92D4806
:10307000006800E028460446201DFFF78FFE78B95F
:10308000E06A00EB8000284951F8200040B994F82C
:103090002C1001208840254909688143234801609C
:1030A000A06A18B104F11800FFF778FE2048006804
:1030B000401C1F4908601B480068844209D1211D3B
:1030C0001C48FFF7A9FE1C480068401C1A4908600C
:1030D00009E01A480068401E184908602046FFF7BA
:1030E000D7FAFFF701FCFFF7E5FE15480068C0B10D
:1030F0000C480068844214D11248006808B90120C5
:1031000000E0002028B940F265420FA113A0FDF7AE
:10311000B1F84FF0805015490860BFF34F8FBFF3EF
:103120006F8F70BD14000020C80000202C0000200C
:103130004000002084030020200000202400002004
:10314000300000204C0000204672656552544F53F9
:103150005C7461736B732E63000000004572726FC4
:10316000723A25732C25640D0A00000004ED00E07E
:1031700070B505462C462DB940F2AB621AA11FA0CE
:10318000FDF778F874B32148006884422AD0FFF72D
:103190004FFE2046FFF7F8FB10B3201DFFF7FEFDA2
:1031A00094F82C10012088401949096808431849EF
:1031B0000860E16A01EB8101164A02EB8100211DE2
:1031C000FFF72AFE1149E06A0968C96A884207D3F5
:1031D0004FF0805010490860BFF34F8FBFF36F8FDF
:1031E000FFF768FE70BD00004672656552544F538C
:1031F0005C7461736B732E63000000004572726F24
:10320000723A25732C25640D0A000000140000207A
:103210002C000020C800002004ED00E01CB5184878
:1032200000210B468222CDE9001016A1174800F0BC
:103230008DF90446012C15D100BF502080F3118870
:10324000BFF34F8FBFF36F8F00BF4FF0FF301049B8
:10325000086001200F49086000200F49086000F055
:103260000BF90BE0601C08B1012000E0002028B938
:1032700040F2847209A10EA0FCF7FCFF1CBD000007
:103280004800002049444C45000000002127000868
:1032900044000020300000202800002046726565B0
:1032A00052544F535C7461736B732E6300000000C3
:1032B0004572726F723A25732C25640D0A00000066
:1032C00070B50546FFF7B4FD15B92C48006800E05D
:1032D00028460446201DFFF761FD78B9E06A00EB3F
:1032E0008000274951F8200040B994F82C100120A3
:1032F000884024490968814322480160A06A18B1C6
:1033000004F11800FFF74AFD211D1F48FFF784FD57
:10331000FFF7D0FD1D48006828B1FFF789FDFFF7D2
:10332000E3FAFFF7C7FD15480068844224D1174827
:103330000068A8B11648006808B9012000E0002024
:1033400028B940F2576213A117A0FCF793FF4FF082
:10335000805019490860BFF34F8FBFF36F8F0BE0A8
:103360000948006815490968884203D100200349CB
:10337000086001E000F02CF870BD0000140000208F
:10338000C80000202C0000209803002030000020FE
:103390004C0000204672656552544F535C74617353
:1033A0006B732E63000000004572726F723A2573D2
:1033B0002C25640D0A00000004ED00E0240000202C
:1033C00002480068401C0149086070474C0000201A
:1033D00010B51B48006818B101201A4908602DE09B
:1033E00000201849086018480068B0FA80F0C0F161
:1033F0001F0404EB8400154951F8200008B1012096
:1034000000E0002028B940F6F62211A115A0FCF733
:1034100031FF04EB84010D4A02EB810041684968E9
:10342000416000F1080142688A4202D1416849685E
:1034300041604168C9680F4A116000BF10BD0000BB
:103440004C000020380000202C000020C800002084
:103450004672656552544F535C7461736B732E638F
:10346000000000004572726F723A25732C25640DBE
:103470000A000000140000201CB52248014609780B
:103480000191FF21024611700146097800919DF8D3
:10349000001001F050011C4A117007211B4A1160F5
:1034A00009E01A490968491E184A11609DF8001080
:1034B0004906090E00919DF8001001F08001802955
:1034C000EFD0124909680902104A116011460988B3
:1034D00001F4E06111600B4A019911700C48006819
:1034E00040F470000A4908600846006840F07040E7
:1034F0000860FFF76FFD002006490860FCF75EFEDC
:1035000000201CBD00E400E0540000205800002012
:1035100020ED00E05000002010B500BF502080F3E7
:103520001188BFF34F8FBFF36F8F00BF00F0D8F843
:1035300018B14FF080500449086000BF002080F3AC
:10354000118800BF10BD000004ED00E02DE9FF4F21
:1035500085B0804689461746DDE912ABB800FFF713
:103560004DFA064656B15C20FFF748FA04460CB106
:10357000266304E03046FFF7D3FC00E000247CB172
:103580000020CDE900ABCDE902403A46494640462D
:10359000089BFFF7D9F82046FEF7ECFF012501E074
:1035A0004FF0FF35284609B0BDE8F08F2DE9F04710
:1035B00006460D46174698464FF0010A2EB941F2CD
:1035C000FD0232A136A0FCF755FE3446FFF730FC71
:1035D000B8F1000F02D0606DC8F8000094F8589060
:1035E000022084F85800052F17D2DFE807F01503F2
:1035F000070B0D00606D284360650EE0606D401C98
:1036000060650AE0656508E0B9F1020F01D0656503
:1036100001E04FF0000A00E000BF00BFB9F1010F68
:103620002ED1201DFFF7BAFB94F82C100120884002
:103630001F49096808431E490860E16A01EB8101DE
:103640001C4A02EB8100211DFFF7E6FBA06A08B9C6
:10365000012000E0002028B941F235120BA110A092
:10366000FCF708FE1449E06A0968C96A884207D96C
:103670004FF0805011490860BFF34F8FBFF36F8F39
:10368000FFF718FC5046BDE8F087000046726565FC
:1036900052544F535C7461736B732E6300000000CF
:1036A0004572726F723A25732C25640D0A00000072
:1036B0002C000020C80000201400002004ED00E0D1
:1036C0000549096809B9012005E00449096809B9F3
:1036D000022000E000207047300000204C00002055
:1036E0002DE9F0414FF0000841480068002872D1F0
:1036F00040480068451C3F480560EDB93E480068F9
:10370000006808B9012000E0002028B940F6D9126D
:103710003AA13FA0FCF7AEFD374807684048006873
:10372000354908603E4807603E480068401C3D49F6
:103730000860FFF7D9F800BF3B48006885423CD3DA
:1037400000BF2D480068006808B9012000E0002093
:1037500020B14FF0FF30344908602DE02648006862
:10376000C068C4686668B54202D22F48066023E08C
:10377000201DFFF713FBA06A18B104F11800FFF732
:103780000DFB94F82C100120884028490968084353
:1037900026490860E16A01EB8101254A02EB8100BC
:1037A000211DFFF739FB2349E06A0968C96A88428D
:1037B000C7D34FF00108C4E700BF1E480068C06AC5
:1037C00000EB80001A4951F82000012801D94FF080
:1037D000010805E0FFE718480068401C164908602A
:1037E0001648006808B14FF001084046BDE8F08176
:1037F0004C0000202800002018000020467265655B
:1038000052544F535C7461736B732E63000000005D
:103810004572726F723A25732C25640D0A00000000
:103820001C0000203C000020440000202C00002050
:10383000C8000020140000203400002038000020C0
:103840002DE9F0410746884614461D46FFF7F0FA79
:103850002148006890F85800022818D01E490968CD
:1038600001F15400496DB943016001201A4909680A
:1038700081F858005DB101212846FEF72FFE4FF078
:10388000805016490860BFF34F8FBFF36F8FFFF76B
:1038900011FBFFF7CDFA1CB10F480068406D2060A6
:1038A0000D48006890F85800012801D1002608E072
:1038B0000949096801F15400496D21EA08010160D4
:1038C000012600200449096881F85800FFF7F2FA40
:1038D0003046BDE8F08100001400002004ED00E057
:1038E00070B5002400263448006828B94FF4FD6202
:1038F00032A137A0FCF7BEFCFFF79AFA2E48006809
:10390000401E2D4908600846006800284FD1344801
:10391000006800284BD024E03248C068C46804F135
:103920001800FFF73BFA201DFFF738FA94F82C1027
:10393000012088402C49096808432B490860E16A46
:1039400001EB8101294A02EB8100211DFFF764FA96
:103950002749E06A0968C96A884202D301202549DB
:1039600008602048006808B9012000E00020002815
:10397000D2D00CB1FEF7B8FF1F48056865B100BF93
:10398000FFF7AEFE10B101201A4908606D1E002D30
:10399000F6D10020184908601648006838B10126A1
:1039A000300716490860BFF34F8FBFF36F8FFFF7E3
:1039B00081FA304670BD00004C00002046726565FB
:1039C00052544F535C7461736B732E63000000009C
:1039D0004572726F723A25732C25640D0A0000003F
:1039E00024000020700300202C000020C8000020CC
:1039F00014000020380000203400002004ED00E016
:103A00003443101001344310100100000000000086
:103A100000000000000000000000000038FCFC383E
:103A200000000000000D0D000000000E1E00001E32
:103A30000E00000000000000000020F8F820F8F858
:103A40002000020F0F020F0F0200387C444747CCC2
:103A500098000306041C1C07030030300080C0607F
:103A600030000C060301000C0C0080D87CE4BCD8AC
:103A70004000070F0808070F080000101E0E000086
:103A8000000000000000000000000000F0F80C043E
:103A90000000000003070C0800000000040CF8F010
:103AA00000000000080C0703000080A0E0C0C0E098
:103AB000A0800002030101030200008080E0E0809A
:103AC0008000000000030300000000000000000070
:103AD00000000000101E0E000000808080808080AA
:103AE0008000000000000000000000000000000056
:103AF00000000000000C0C00000000000080C0600E
:103B000030000C06030100000000F8FC04C424FC93
:103B1000F800070F0908080F0700001018FCFC0048
:103B200000000008080F0F080800080C84C4643C5B
:103B300018000E0F0908080C0C00080C444444FC43
:103B4000B800040C0808080F0700C0E0B098FCFC9F
:103B50008000000000080F0F08007C7C4444C4C4AF
:103B60008400040C0808080F0700F0F84C4444C017
:103B70008000070F0808080F07000C0C0484C47CA1
:103B80003C0000000F0F00000000B8FC444444FC5F
:103B9000B800070F0808080F0700387C444444FCAD
:103BA000F800000808080C0703000000003030008F
:103BB0000000000000060600000000000030300099
:103BC00000000000080E060000000080C0603018F1
:103BD000080000000103060C08004040404040403F
:103BE000400002020202020202000008183060C017
:103BF000800000080C0603010000181C04C4E43C0B
:103C000018000000000D0D000000F0F808C8C8F80A
:103C1000F000070F080B0B0B0100E0F0988C98F0F8
:103C2000E0000F0F0000000F0F0004FCFC4444FCF8
:103C3000B800080F0F08080F0700F0F80C04040C78
:103C4000180003070C08080C060004FCFC040CF820
:103C5000F000080F0F080C07030004FCFC44E40C00
:103C60001C00080F0F08080C0E0004FCFC44E40CB8
:103C70001C00080F0F0800000000F0F80C84848C72
:103C8000980003070C0808070F00FCFC404040FCAC
:103C9000FC000F0F0000000F0F00000004FCFC04EC
:103CA00000000000080F0F08000000000004FCFCEA
:103CB0000400070F08080F07000004FCFCC0F03CDC
:103CC0000C00080F0F00010F0E0004FCFC040000A4
:103CD0000000080F0F08080C0E00FCFC387038FCC0
:103CE000FC000F0F0000000F0F00FCFC3870E0FC20
:103CF000FC000F0F0000000F0F00F0F80C040CF890
:103D0000F00003070C080C07030004FCFC44447C8F
:103D10003800080F0F0800000000F8FC040404FC41
:103D2000F800070F080E3C3F270004FCFC44C4FCCD
:103D30003800080F0F00000F0F00183C6444C49CAB
:103D40001800060E0808080F0700001C0CFCFC0CED
:103D50001C000000080F0F080000FCFC000000FC25
:103D6000FC00070F0808080F0700FCFC000000FC1F
:103D7000FC000103060C06030100FCFC008000FCB3
:103D8000FC00030F0E030E0F03000C3CF0C0F03CD0
:103D90000C000C0F0300030F0C00003C7CC0C07C27
:103DA0003C000000080F0F0800001C0C84C4643C99
:103DB0001C000E0F0908080C0E000000FCFC040497
:103DC000000000000F0F080800003870E0C08000FD
:103DD00000000000000103070E0000000404FCFCCA
:103DE0000000000008080F0F0000080C0603060C76
:103DF00008000000000000000000000000000000BB
:103E000000002020202020202020000003070400A4
:103E10000000000000000000000000A0A0A0E0C022
:103E20000000070F0808070F080004FCFC2060C012
:103E30008000080F0708080F0700C0E0202020605E
:103E40004000070F0808080C040080C06024FCFC38
:103E50000000070F0808070F0800C0E0A0A0A0E0BE
:103E6000C000070F0808080C040040F8FC440C18B8
:103E70000000080F0F0800000000C0E02020C0E094
:103E80002000276F48487F3F000004FCFC4020E0F2
:103E9000C000080F0F00000F0F00000020ECEC0026
:103EA00000000000080F0F0800000000000020ECD8
:103EB000EC0000307040407F3F0004FCFC80C0609C
:103EC0002000080F0F01030E0C00000004FCFC0092
:103ED00000000000080F0F080000E0E060C060E094
:103EE000C0000F0F000F000F0F0020E0C02020E0E7
:103EF000C000000F0F00000F0F00C0E0202020E0E6
:103F0000C000070F0808080F070020E0C02020E0CD
:103F1000C000407F7F48080F0700C0E02020C0E0BD
:103F20002000070F08487F7F400020E0C06020602D
:103F3000C000080F0F080000000040E0A020206033
:103F40004000040C09090B0E04002020F8FC20207E
:103F500000000000070F080C0400E0E00000E0E0B3
:103F60000000070F0808070F080000E0E00000E06D
:103F7000E0000003070C0C070300E0E0000000E095
:103F8000E000070F0C070C0F07002060C080C06026
:103F90002000080C0703070C0800E0E0000000E028
:103FA000E000474F4848683F1F00606020A0E06085
:103FB00020000C0E0B09080C0C00004040F8BC045B
:103FC0000400000000070F080800000000BCBC004F
:103FD00000000000000F0F000000000404BCF840C7
:103FE00040000008080F07000000080C040C080C33
:103FF0000400000000000000000080C0603060C0CD
:1040000080000707040404070700808080E0C08068
:1040100000000303030F070301000080C0E0E0C0BD
:104020008000000103070703010000004C40000866
:1040300000000020C800000028010008144100080A
:10404000C8000020103200004401000800A24A0409
:104050000000000000000000010203040607080938
:104060000000000000000000000000000000000050
:104070000000000000000000000000000000000040
:104080000000000000000000000000000000000030
:10409000000000000000000000000000AAAAAAAA78
:1040A0000000000000000000000000000000000010
:1040B0000000000000000000000000000000000000
:1040C00000000000010203040102030406070809BE
:1040D00002040608000000000000000000000000CC
:1040E00000000000000000000000000000000100CF
:1040F00000000000000000000000000000000000C0
:1041000000000000000000000000000000000000AF
:0441100001FF0000AB
:04000005080000ED02
:00000001FF
